:100000000C945C000C9479000C9479000C947900A9
:100010000C9479000C9479000C9479000C9479007C
:100020000C9479000C9479000C9479000C9479006C
:100030000C9479000C9479000C9479000C9479005C
:100040000C9471010C9479000C9479000C94790053
:100050000C9479000C9479000C9479000C9479003C
:100060000C9479000C947900000000080002010053
:100070000003040700000000000000000000000072
:10008000250028002B0000000000240027002A0083
:10009000040404040404040402020202020203032E
:1000A0000303030301020408102040800102040836
:1000B000102001020408102011241FBECFEFD8E049
:1000C000DEBFCDBF11E0A0E0B1E0E0E5F8E002C0A6
:1000D00005900D92A032B107D9F721E0A0E2B1E07E
:1000E00001C01D92AB32B207E1F70E94BB010C9434
:1000F00026040C94000090E0FC01EC55FF4F249185
:10010000FC01E057FF4F8491882399F090E0880F1D
:10011000991FFC01EA57FF4FA591B491FC01E458E7
:10012000FF4F859194918FB7F894EC91E22BEC936B
:100130008FBF089590E0FC01E859FF4F3491FC0116
:10014000EC55FF4F2491FC01E057FF4FE491EE2363
:1001500009F43BC0332339F1333091F038F43130B6
:10016000A9F0323001F584B58F7D12C0373091F09F
:100170003830A1F03430B9F4809180008F7D03C015
:10018000809180008F77809380000DC084B58F7739
:1001900084BD09C08091B0008F7703C08091B0000A
:1001A0008F7D8093B000F0E0EE0FFF1FE458FF4F0B
:1001B000A591B4918FB7F894EC91611103C020958B
:1001C0002E2301C02E2B2C938FBF08952F923F9288
:1001D0004F925F926F927F928F929F92AF92BF9257
:1001E000CF92DF92EF92FF920F931F93CF93DF9303
:1001F00000D000D0CDB7DEB76B017C0161E08DE0AF
:1002000029833A834B835C830E949A0029813A8137
:100210004B815C8160E070E08AE794E40E946602B2
:100220002B013C0120E030E048EC53E4C701B6016B
:100230000E94B9034B015C01212C312CB10180E0FB
:1002400090E00E940703A50194010E94610287FFCC
:1002500031C061E08CE00E949A0020E030E04AEF7B
:1002600053E4C301B2010E94B9030E94D8026B019A
:100270007C018B016230710540F0CB01880F991F22
:10028000880F991F05970197F1F760E08CE00E94B5
:100290009A000230110550F0CC0CDD1CCC0CDD1C9A
:1002A00085E0C81AD108C6010197F1F78FEF281A27
:1002B000380AC4CF0F900F900F900F90DF91CF911D
:1002C0001F910F91FF90EF90DF90CF90BF90AF9074
:1002D0009F908F907F906F905F904F903F902F9066
:1002E00008951F920F920FB60F9211242F933F93F0
:1002F0008F939F93AF93BF93809125019091260197
:10030000A0912701B09128013091240123E0230F0F
:100310002D3720F40196A11DB11D05C026E8230F3D
:100320000296A11DB11D2093240180932501909375
:100330002601A0932701B09328018091200190917C
:100340002101A0912201B09123010196A11DB11DAF
:100350008093200190932101A0932201B093230167
:10036000BF91AF919F918F913F912F910F900FBEB1
:100370000F901F901895789484B5826084BD84B5E1
:10038000816084BD85B5826085BD85B5816085BD90
:1003900080916E00816080936E0010928100809148
:1003A00081008260809381008091810081608093D0
:1003B0008100809180008160809380008091B100F5
:1003C00084608093B1008091B00081608093B00020
:1003D00080917A00846080937A0080917A008260B4
:1003E00080937A0080917A00816080937A00809176
:1003F0007A00806880937A001092C1008CE00E949D
:100400007B008DE00E947B0000E010E0EE24E3948E
:10041000F12C8091290190912A01892B09F04AC081
:10042000C0E1D1E0C990D990B601660F771F072EC1
:10043000000C880B990B0E9409034B015C01B6016B
:10044000DD0C880B990B0E94090320E030E04AE79D
:1004500055E40E946602A50194010E94E60081E035
:10046000C032D807F9F6C2E0D1E0C990D990B60100
:10047000660F771F072E000C880B990B0E9409034B
:100480004B015C01B601DD0C880B990B0E9409033E
:1004900020E030E04AE755E40E946602A50194019D
:1004A0000E94E60081E0C031D807F9F6F0922A01F7
:1004B000E09229010115110509F4ABCF0E9400005B
:1004C000A8CF0E94440308F481E008950E947A02B4
:1004D0000C947F030E94780358F00E94710340F04F
:1004E00029F45F3F29F00C94680351110C94B30375
:1004F0000C946E030E94900368F39923B1F3552383
:1005000091F3951B550BBB27AA2762177307840726
:1005100038F09F5F5F4F220F331F441FAA1FA9F3BC
:1005200035D00E2E3AF0E0E832D091505040E695AA
:10053000001CCAF72BD0FE2F29D0660F771F881F0B
:10054000BB1F261737074807AB07B0E809F0BB0BFE
:10055000802DBF01FF2793585F4F3AF09E3F510512
:1005600078F00C9468030C94B3035F3FE4F3983E77
:10057000D4F3869577956795B795F7959F5FC9F7FB
:10058000880F911D9695879597F90895E1E0660F7C
:10059000771F881FBB1F621773078407BA0720F0F5
:1005A000621B730B840BBA0BEE1F88F7E09508955E
:1005B0000E94980388F09F5798F0B92F9927B75158
:1005C000B0F0E1F0660F771F881F991F1AF0BA95F7
:1005D000C9F714C0B13091F00E94B203B1E00895A0
:1005E0000C94B203672F782F8827B85F39F0B93F92
:1005F000CCF3869577956795B395D9F73EF49095AA
:100600008095709561957F4F8F4F9F4F0895E89427
:1006100009C097FB3EF490958095709561957F4F4A
:100620008F4F9F4F9923A9F0F92F96E9BB279395F8
:10063000F695879577956795B795F111F8CFFAF408
:10064000BB0F11F460FF1BC06F5F7F4F8F4F9F4F39
:1006500016C0882311F096E911C0772321F09EE897
:10066000872F762F05C0662371F096E8862F70E0FD
:1006700060E02AF09A95660F771F881FDAF7880FD7
:100680009695879597F90895990F0008550FAA0B2D
:10069000E0E8FEEF16161706E807F907C0F0121695
:1006A0001306E407F50798F0621B730B840B950B98
:1006B00039F40A2661F0232B242B252B21F40895ED
:1006C0000A2609F4A140A6958FEF811D811D08958A
:1006D00097F99F6780E870E060E008959FEF80ECF5
:1006E000089500240A941616170618060906089598
:1006F00000240A9412161306140605060895092EFE
:100700000394000C11F4882352F0BB0F40F4BF2B6C
:1007100011F460FF04C06F5F7F4F8F4F9F4F0895AC
:1007200057FD9058440F551F59F05F3F71F04795A2
:10073000880F97FB991F61F09F3F79F08795089587
:10074000121613061406551FF2CF4695F1DF08C0A6
:10075000161617061806991FF1CF869571056105C3
:1007600008940895E894BB2766277727CB0197F96B
:1007700008950E94CC030C947F030E94710338F00B
:100780000E94780320F0952311F00C9468030C94D8
:100790006E0311240C94B3030E94900370F3959F91
:1007A000C1F3950F50E0551F629FF001729FBB2768
:1007B000F00DB11D639FAA27F00DB11DAA1F649F04
:1007C0006627B00DA11D661F829F2227B00DA11DB7
:1007D000621F739FB00DA11D621F839FA00D611D3D
:1007E000221F749F3327A00D611D231F849F600D5E
:1007F000211D822F762F6A2F11249F5750409AF087
:10080000F1F088234AF0EE0FFF1FBB1F661F771F12
:10081000881F91505040A9F79E3F510580F00C94DD
:1008200068030C94B3035F3FE4F3983ED4F38695DA
:1008300077956795B795F795E7959F5FC1F7FE2B7D
:10084000880F911D9695879597F90895F894FFCF95
:10085000060126014A015D018801B801EE010B0283
:1008600083009300A500AF00C400DC00F700060180
:107E0000112484B714BE81FFF0D085E080938100F7
:107E100082E08093C00088E18093C10086E0809377
:107E2000C20080E18093C4008EE0C9D0259A86E02C
:107E300020E33CEF91E0309385002093840096BBD3
:107E4000B09BFECF1D9AA8958150A9F7CC24DD24C4
:107E500088248394B5E0AB2EA1E19A2EF3E0BF2EE7
:107E6000A2D0813461F49FD0082FAFD0023811F036
:107E7000013811F484E001C083E08DD089C08234E0
:107E800011F484E103C0853419F485E0A6D080C0E4
:107E9000853579F488D0E82EFF2485D0082F10E0AE
:107EA000102F00270E291F29000F111F8ED06801E7
:107EB0006FC0863521F484E090D080E0DECF843638
:107EC00009F040C070D06FD0082F6DD080E0C81688
:107ED00080E7D80618F4F601B7BEE895C0E0D1E017
:107EE00062D089930C17E1F7F0E0CF16F0E7DF06D8
:107EF00018F0F601B7BEE89568D007B600FCFDCFD4
:107F0000A601A0E0B1E02C9130E011968C91119780
:107F100090E0982F8827822B932B1296FA010C0160
:107F200087BEE89511244E5F5F4FF1E0A038BF0790
:107F300051F7F601A7BEE89507B600FCFDCF97BE46
:107F4000E89526C08437B1F42ED02DD0F82E2BD052
:107F50003CD0F601EF2C8F010F5F1F4F84911BD097
:107F6000EA94F801C1F70894C11CD11CFA94CF0C13
:107F7000D11C0EC0853739F428D08EE10CD085E9AC
:107F80000AD08FE07ACF813511F488E018D01DD067
:107F900080E101D065CF982F8091C00085FFFCCF94
:107FA0009093C60008958091C00087FFFCCF809118
:107FB000C00084FD01C0A8958091C6000895E0E648
:107FC000F0E098E1908380830895EDDF803219F02E
:107FD00088E0F5DFFFCF84E1DECF1F93182FE3DFCA
:107FE0001150E9F7F2DF1F91089580E0E8DFEE27F6
:047FF000FF270994CA
:027FFE00040479
:0400000300007E007B
:00000001FF
